{
  "contractName": "MasterContract",
  "abi": [
    {
      "constant": true,
      "inputs": [
        {
          "name": "",
          "type": "address"
        }
      ],
      "name": "whitelists",
      "outputs": [
        {
          "name": "patient",
          "type": "address"
        }
      ],
      "payable": false,
      "stateMutability": "view",
      "type": "function"
    },
    {
      "constant": true,
      "inputs": [],
      "name": "owner",
      "outputs": [
        {
          "name": "",
          "type": "address"
        }
      ],
      "payable": false,
      "stateMutability": "view",
      "type": "function"
    },
    {
      "constant": true,
      "inputs": [
        {
          "name": "",
          "type": "uint256"
        }
      ],
      "name": "patients",
      "outputs": [
        {
          "name": "",
          "type": "address"
        }
      ],
      "payable": false,
      "stateMutability": "view",
      "type": "function"
    },
    {
      "constant": false,
      "inputs": [
        {
          "name": "newOwner",
          "type": "address"
        }
      ],
      "name": "transferOwnership",
      "outputs": [],
      "payable": false,
      "stateMutability": "nonpayable",
      "type": "function"
    },
    {
      "inputs": [],
      "payable": false,
      "stateMutability": "nonpayable",
      "type": "constructor"
    },
    {
      "anonymous": false,
      "inputs": [
        {
          "indexed": false,
          "name": "patientAddress",
          "type": "address"
        },
        {
          "indexed": false,
          "name": "requestor",
          "type": "address"
        },
        {
          "indexed": false,
          "name": "result",
          "type": "bool"
        },
        {
          "indexed": false,
          "name": "costIds",
          "type": "uint256[]"
        },
        {
          "indexed": false,
          "name": "costs",
          "type": "uint256[]"
        }
      ],
      "name": "Result",
      "type": "event"
    },
    {
      "anonymous": false,
      "inputs": [
        {
          "indexed": true,
          "name": "previousOwner",
          "type": "address"
        },
        {
          "indexed": true,
          "name": "newOwner",
          "type": "address"
        }
      ],
      "name": "OwnershipTransferred",
      "type": "event"
    },
    {
      "constant": false,
      "inputs": [
        {
          "name": "patientAddress",
          "type": "address"
        },
        {
          "name": "requestors",
          "type": "address[]"
        },
        {
          "name": "costIdArray",
          "type": "uint256[]"
        },
        {
          "name": "costListArray",
          "type": "uint256[]"
        }
      ],
      "name": "addPatient",
      "outputs": [],
      "payable": false,
      "stateMutability": "nonpayable",
      "type": "function"
    },
    {
      "constant": false,
      "inputs": [
        {
          "name": "patientAddress",
          "type": "address"
        }
      ],
      "name": "removePatient",
      "outputs": [],
      "payable": false,
      "stateMutability": "nonpayable",
      "type": "function"
    },
    {
      "constant": false,
      "inputs": [
        {
          "name": "patientAddress",
          "type": "address"
        },
        {
          "name": "requestorsArray",
          "type": "address[]"
        }
      ],
      "name": "updateWhitelistRequestors",
      "outputs": [],
      "payable": false,
      "stateMutability": "nonpayable",
      "type": "function"
    },
    {
      "constant": false,
      "inputs": [
        {
          "name": "patientAddress",
          "type": "address"
        },
        {
          "name": "costIdsArray",
          "type": "uint256[]"
        },
        {
          "name": "costsArray",
          "type": "uint256[]"
        }
      ],
      "name": "updateWhitelistCosts",
      "outputs": [],
      "payable": false,
      "stateMutability": "nonpayable",
      "type": "function"
    },
    {
      "constant": false,
      "inputs": [
        {
          "name": "patientAddress",
          "type": "address"
        },
        {
          "name": "requestor",
          "type": "address"
        }
      ],
      "name": "authorizeRequestor",
      "outputs": [
        {
          "name": "patientAddressReturn",
          "type": "address"
        },
        {
          "name": "requestorReturn",
          "type": "address"
        },
        {
          "name": "resultReturn",
          "type": "bool"
        },
        {
          "name": "costIdReturn",
          "type": "uint256[]"
        },
        {
          "name": "costListReturn",
          "type": "uint256[]"
        }
      ],
      "payable": false,
      "stateMutability": "nonpayable",
      "type": "function"
    },
    {
      "constant": true,
      "inputs": [
        {
          "name": "patientAddress",
          "type": "address"
        }
      ],
      "name": "getPatientId",
      "outputs": [
        {
          "name": "patientAddy",
          "type": "address"
        }
      ],
      "payable": false,
      "stateMutability": "view",
      "type": "function"
    },
    {
      "constant": true,
      "inputs": [
        {
          "name": "patientAddress",
          "type": "address"
        }
      ],
      "name": "getPatientRequestorArray",
      "outputs": [
        {
          "name": "requestorArray",
          "type": "address[]"
        }
      ],
      "payable": false,
      "stateMutability": "view",
      "type": "function"
    },
    {
      "constant": true,
      "inputs": [
        {
          "name": "patientAddress",
          "type": "address"
        }
      ],
      "name": "getPatientCostIdArray",
      "outputs": [
        {
          "name": "costIDArray",
          "type": "uint256[]"
        }
      ],
      "payable": false,
      "stateMutability": "view",
      "type": "function"
    },
    {
      "constant": true,
      "inputs": [
        {
          "name": "patientAddress",
          "type": "address"
        }
      ],
      "name": "getPatientCostListArray",
      "outputs": [
        {
          "name": "costlistArray",
          "type": "uint256[]"
        }
      ],
      "payable": false,
      "stateMutability": "view",
      "type": "function"
    }
  ],
  "bytecode": "0x6060604052341561000f57600080fd5b336000806101000a81548173ffffffffffffffffffffffffffffffffffffffff021916908373ffffffffffffffffffffffffffffffffffffffff16021790555061205f8061005e6000396000f3006060604052600436106100c5576000357c0100000000000000000000000000000000000000000000000000000000900463ffffffff1680631ac44bae146100ca5780631e7be210146101835780632604fa7b146101fc57806341b22d401461027557806360a34efd146103035780637d0d6257146103fc5780638da5cb5b1461043557806393119a831461048a578063931c006a146104ed578063c90bd2f514610653578063e7e7bcae146106e1578063ed94a3a11461075a578063f2fde38b146107e8575b600080fd5b34156100d557600080fd5b610181600480803573ffffffffffffffffffffffffffffffffffffffff169060200190919080359060200190820180359060200190808060200260200160405190810160405280939291908181526020018383602002808284378201915050505050509190803590602001908201803590602001908080602002602001604051908101604052809392919081815260200183836020028082843782019150505050505091905050610821565b005b341561018e57600080fd5b6101ba600480803573ffffffffffffffffffffffffffffffffffffffff169060200190919050506109d8565b604051808273ffffffffffffffffffffffffffffffffffffffff1673ffffffffffffffffffffffffffffffffffffffff16815260200191505060405180910390f35b341561020757600080fd5b610233600480803573ffffffffffffffffffffffffffffffffffffffff16906020019091905050610a16565b604051808273ffffffffffffffffffffffffffffffffffffffff1673ffffffffffffffffffffffffffffffffffffffff16815260200191505060405180910390f35b341561028057600080fd5b6102ac600480803573ffffffffffffffffffffffffffffffffffffffff16906020019091905050610b1e565b6040518080602001828103825283818151815260200191508051906020019060200280838360005b838110156102ef5780820151818401526020810190506102d4565b505050509050019250505060405180910390f35b341561030e57600080fd5b6103fa600480803573ffffffffffffffffffffffffffffffffffffffff16906020019091908035906020019082018035906020019080806020026020016040519081016040528093929190818152602001838360200280828437820191505050505050919080359060200190820180359060200190808060200260200160405190810160405280939291908181526020018383602002808284378201915050505050509190803590602001908201803590602001908080602002602001604051908101604052809392919081815260200183836020028082843782019150505050505091905050610c5a565b005b341561040757600080fd5b610433600480803573ffffffffffffffffffffffffffffffffffffffff16906020019091905050610ede565b005b341561044057600080fd5b61044861115a565b604051808273ffffffffffffffffffffffffffffffffffffffff1673ffffffffffffffffffffffffffffffffffffffff16815260200191505060405180910390f35b341561049557600080fd5b6104ab600480803590602001909190505061117f565b604051808273ffffffffffffffffffffffffffffffffffffffff1673ffffffffffffffffffffffffffffffffffffffff16815260200191505060405180910390f35b34156104f857600080fd5b610543600480803573ffffffffffffffffffffffffffffffffffffffff1690602001909190803573ffffffffffffffffffffffffffffffffffffffff169060200190919050506111be565b604051808673ffffffffffffffffffffffffffffffffffffffff1673ffffffffffffffffffffffffffffffffffffffff1681526020018573ffffffffffffffffffffffffffffffffffffffff1673ffffffffffffffffffffffffffffffffffffffff168152602001841515151581526020018060200180602001838103835285818151815260200191508051906020019060200280838360005b838110156105f85780820151818401526020810190506105dd565b50505050905001838103825284818151815260200191508051906020019060200280838360005b8381101561063a57808201518184015260208101905061061f565b5050505090500197505050505050505060405180910390f35b341561065e57600080fd5b61068a600480803573ffffffffffffffffffffffffffffffffffffffff1690602001909190505061164e565b6040518080602001828103825283818151815260200191508051906020019060200280838360005b838110156106cd5780820151818401526020810190506106b2565b505050509050019250505060405180910390f35b34156106ec57600080fd5b610758600480803573ffffffffffffffffffffffffffffffffffffffff169060200190919080359060200190820180359060200190808060200260200160405190810160405280939291908181526020018383602002808284378201915050505050509190505061178a565b005b341561076557600080fd5b610791600480803573ffffffffffffffffffffffffffffffffffffffff169060200190919050506118de565b6040518080602001828103825283818151815260200191508051906020019060200280838360005b838110156107d45780820151818401526020810190506107b9565b505050509050019250505060405180910390f35b34156107f357600080fd5b61081f600480803573ffffffffffffffffffffffffffffffffffffffff16906020019091905050611a50565b005b6000809054906101000a900473ffffffffffffffffffffffffffffffffffffffff1673ffffffffffffffffffffffffffffffffffffffff163373ffffffffffffffffffffffffffffffffffffffff1614151561087c57600080fd5b600073ffffffffffffffffffffffffffffffffffffffff16600160008573ffffffffffffffffffffffffffffffffffffffff1673ffffffffffffffffffffffffffffffffffffffff16815260200190815260200160002060000160009054906101000a900473ffffffffffffffffffffffffffffffffffffffff1673ffffffffffffffffffffffffffffffffffffffff161415151561091a57600080fd5b610925838383611ba5565b81600160008573ffffffffffffffffffffffffffffffffffffffff1673ffffffffffffffffffffffffffffffffffffffff168152602001908152602001600020600201908051906020019061097b929190611d87565b5080600160008573ffffffffffffffffffffffffffffffffffffffff1673ffffffffffffffffffffffffffffffffffffffff16815260200190815260200160002060030190805190602001906109d2929190611d87565b50505050565b60016020528060005260406000206000915090508060000160009054906101000a900473ffffffffffffffffffffffffffffffffffffffff16905081565b60008173ffffffffffffffffffffffffffffffffffffffff16600160008473ffffffffffffffffffffffffffffffffffffffff1673ffffffffffffffffffffffffffffffffffffffff16815260200190815260200160002060000160009054906101000a900473ffffffffffffffffffffffffffffffffffffffff1673ffffffffffffffffffffffffffffffffffffffff16141515610ab457600080fd5b600160008373ffffffffffffffffffffffffffffffffffffffff1673ffffffffffffffffffffffffffffffffffffffff16815260200190815260200160002060000160009054906101000a900473ffffffffffffffffffffffffffffffffffffffff169050919050565b610b26611dd4565b8173ffffffffffffffffffffffffffffffffffffffff16600160008473ffffffffffffffffffffffffffffffffffffffff1673ffffffffffffffffffffffffffffffffffffffff16815260200190815260200160002060000160009054906101000a900473ffffffffffffffffffffffffffffffffffffffff1673ffffffffffffffffffffffffffffffffffffffff16141515610bc257600080fd5b600160008373ffffffffffffffffffffffffffffffffffffffff1673ffffffffffffffffffffffffffffffffffffffff168152602001908152602001600020600201805480602002602001604051908101604052809291908181526020018280548015610c4e57602002820191906000526020600020905b815481526020019060010190808311610c3a575b50505050509050919050565b6000809054906101000a900473ffffffffffffffffffffffffffffffffffffffff1673ffffffffffffffffffffffffffffffffffffffff163373ffffffffffffffffffffffffffffffffffffffff16141515610cb557600080fd5b600073ffffffffffffffffffffffffffffffffffffffff16600160008673ffffffffffffffffffffffffffffffffffffffff1673ffffffffffffffffffffffffffffffffffffffff16815260200190815260200160002060000160009054906101000a900473ffffffffffffffffffffffffffffffffffffffff1673ffffffffffffffffffffffffffffffffffffffff16141515610d5257600080fd5b60028054806001018281610d669190611de8565b9160005260206000209001600086909190916101000a81548173ffffffffffffffffffffffffffffffffffffffff021916908373ffffffffffffffffffffffffffffffffffffffff160217905550506080604051908101604052808573ffffffffffffffffffffffffffffffffffffffff16815260200184815260200183815260200182815250600160008673ffffffffffffffffffffffffffffffffffffffff1673ffffffffffffffffffffffffffffffffffffffff16815260200190815260200160002060008201518160000160006101000a81548173ffffffffffffffffffffffffffffffffffffffff021916908373ffffffffffffffffffffffffffffffffffffffff1602179055506020820151816001019080519060200190610e8f929190611e14565b506040820151816002019080519060200190610eac929190611e9e565b506060820151816003019080519060200190610ec9929190611e9e565b50905050610ed8848383611ba5565b50505050565b6000806000809054906101000a900473ffffffffffffffffffffffffffffffffffffffff1673ffffffffffffffffffffffffffffffffffffffff163373ffffffffffffffffffffffffffffffffffffffff16141515610f3c57600080fd5b600073ffffffffffffffffffffffffffffffffffffffff16600160008573ffffffffffffffffffffffffffffffffffffffff1673ffffffffffffffffffffffffffffffffffffffff16815260200190815260200160002060000160009054906101000a900473ffffffffffffffffffffffffffffffffffffffff1673ffffffffffffffffffffffffffffffffffffffff1614151515610fda57600080fd5b600090505b60028054905081101561106c578273ffffffffffffffffffffffffffffffffffffffff1660028281548110151561101257fe5b906000526020600020900160009054906101000a900473ffffffffffffffffffffffffffffffffffffffff1673ffffffffffffffffffffffffffffffffffffffff16141561105f5761106c565b8080600101915050610fdf565b600260016002805490500381548110151561108357fe5b906000526020600020900160009054906101000a900473ffffffffffffffffffffffffffffffffffffffff166002838154811015156110be57fe5b906000526020600020900160006101000a81548173ffffffffffffffffffffffffffffffffffffffff021916908373ffffffffffffffffffffffffffffffffffffffff160217905550600260016002805490500381548110151561111e57fe5b906000526020600020900160006101000a81549073ffffffffffffffffffffffffffffffffffffffff021916905561115583611c4d565b505050565b6000809054906101000a900473ffffffffffffffffffffffffffffffffffffffff1681565b60028181548110151561118e57fe5b90600052602060002090016000915054906101000a900473ffffffffffffffffffffffffffffffffffffffff1681565b60008060006111cb611dd4565b6111d3611dd4565b6111db611eeb565b60006111e5611dd4565b6111ed611dd4565b60008b73ffffffffffffffffffffffffffffffffffffffff16600160008e73ffffffffffffffffffffffffffffffffffffffff1673ffffffffffffffffffffffffffffffffffffffff16815260200190815260200160002060000160009054906101000a900473ffffffffffffffffffffffffffffffffffffffff1673ffffffffffffffffffffffffffffffffffffffff1614151561128b57600080fd5b600160008d73ffffffffffffffffffffffffffffffffffffffff1673ffffffffffffffffffffffffffffffffffffffff16815260200190815260200160002060010180548060200260200160405190810160405280929190818152602001828054801561134d57602002820191906000526020600020905b8160009054906101000a900473ffffffffffffffffffffffffffffffffffffffff1673ffffffffffffffffffffffffffffffffffffffff1681526020019060010190808311611303575b5050505050945060009350600090505b84518110156113c7578a73ffffffffffffffffffffffffffffffffffffffff16858281518110151561138b57fe5b9060200190602002015173ffffffffffffffffffffffffffffffffffffffff1614156113ba57600193506113c7565b808060010191505061135d565b6001151584151514156114fb57600160008d73ffffffffffffffffffffffffffffffffffffffff1673ffffffffffffffffffffffffffffffffffffffff16815260200190815260200160002060020180548060200260200160405190810160405280929190818152602001828054801561146057602002820191906000526020600020905b81548152602001906001019080831161144c575b50505050509250600160008d73ffffffffffffffffffffffffffffffffffffffff1673ffffffffffffffffffffffffffffffffffffffff1681526020019081526020016000206003018054806020026020016040519081016040528092919081815260200182805480156114f357602002820191906000526020600020905b8154815260200190600101908083116114df575b505050505091505b7f278a0fa3f2c5426c0b597621d44119262189a9443066cca1548cb5a08a1bf07f8c8c868686604051808673ffffffffffffffffffffffffffffffffffffffff1673ffffffffffffffffffffffffffffffffffffffff1681526020018573ffffffffffffffffffffffffffffffffffffffff1673ffffffffffffffffffffffffffffffffffffffff168152602001841515151581526020018060200180602001838103835285818151815260200191508051906020019060200280838360005b838110156115d65780820151818401526020810190506115bb565b50505050905001838103825284818151815260200191508051906020019060200280838360005b838110156116185780820151818401526020810190506115fd565b5050505090500197505050505050505060405180910390a18b8b8585859950995099509950995050505050509295509295909350565b611656611dd4565b8173ffffffffffffffffffffffffffffffffffffffff16600160008473ffffffffffffffffffffffffffffffffffffffff1673ffffffffffffffffffffffffffffffffffffffff16815260200190815260200160002060000160009054906101000a900473ffffffffffffffffffffffffffffffffffffffff1673ffffffffffffffffffffffffffffffffffffffff161415156116f257600080fd5b600160008373ffffffffffffffffffffffffffffffffffffffff1673ffffffffffffffffffffffffffffffffffffffff16815260200190815260200160002060030180548060200260200160405190810160405280929190818152602001828054801561177e57602002820191906000526020600020905b81548152602001906001019080831161176a575b50505050509050919050565b6000809054906101000a900473ffffffffffffffffffffffffffffffffffffffff1673ffffffffffffffffffffffffffffffffffffffff163373ffffffffffffffffffffffffffffffffffffffff161415156117e557600080fd5b600073ffffffffffffffffffffffffffffffffffffffff16600160008473ffffffffffffffffffffffffffffffffffffffff1673ffffffffffffffffffffffffffffffffffffffff16815260200190815260200160002060000160009054906101000a900473ffffffffffffffffffffffffffffffffffffffff1673ffffffffffffffffffffffffffffffffffffffff161415151561188357600080fd5b80600160008473ffffffffffffffffffffffffffffffffffffffff1673ffffffffffffffffffffffffffffffffffffffff16815260200190815260200160002060010190805190602001906118d9929190611eff565b505050565b6118e6611eeb565b8173ffffffffffffffffffffffffffffffffffffffff16600160008473ffffffffffffffffffffffffffffffffffffffff1673ffffffffffffffffffffffffffffffffffffffff16815260200190815260200160002060000160009054906101000a900473ffffffffffffffffffffffffffffffffffffffff1673ffffffffffffffffffffffffffffffffffffffff1614151561198257600080fd5b600160008373ffffffffffffffffffffffffffffffffffffffff1673ffffffffffffffffffffffffffffffffffffffff168152602001908152602001600020600101805480602002602001604051908101604052809291908181526020018280548015611a4457602002820191906000526020600020905b8160009054906101000a900473ffffffffffffffffffffffffffffffffffffffff1673ffffffffffffffffffffffffffffffffffffffff16815260200190600101908083116119fa575b50505050509050919050565b6000809054906101000a900473ffffffffffffffffffffffffffffffffffffffff1673ffffffffffffffffffffffffffffffffffffffff163373ffffffffffffffffffffffffffffffffffffffff16141515611aab57600080fd5b600073ffffffffffffffffffffffffffffffffffffffff168173ffffffffffffffffffffffffffffffffffffffff1614151515611ae757600080fd5b8073ffffffffffffffffffffffffffffffffffffffff166000809054906101000a900473ffffffffffffffffffffffffffffffffffffffff1673ffffffffffffffffffffffffffffffffffffffff167f8be0079c531659141344cd1fd0a4f28419497f9722a3daafe3b4186f6b6457e060405160405180910390a3806000806101000a81548173ffffffffffffffffffffffffffffffffffffffff021916908373ffffffffffffffffffffffffffffffffffffffff16021790555050565b60008090505b8251811015611c47578181815181101515611bc257fe5b90602001906020020151600160008673ffffffffffffffffffffffffffffffffffffffff1673ffffffffffffffffffffffffffffffffffffffff16815260200190815260200160002060040160008584815181101515611c1e57fe5b906020019060200201518152602001908152602001600020819055508080600101915050611bab565b50505050565b600073ffffffffffffffffffffffffffffffffffffffff16600160008373ffffffffffffffffffffffffffffffffffffffff1673ffffffffffffffffffffffffffffffffffffffff16815260200190815260200160002060000160009054906101000a900473ffffffffffffffffffffffffffffffffffffffff1673ffffffffffffffffffffffffffffffffffffffff1614151515611ceb57600080fd5b600160008273ffffffffffffffffffffffffffffffffffffffff1673ffffffffffffffffffffffffffffffffffffffff168152602001908152602001600020600080820160006101000a81549073ffffffffffffffffffffffffffffffffffffffff0219169055600182016000611d629190611f89565b600282016000611d729190611faa565b600382016000611d829190611faa565b505050565b828054828255906000526020600020908101928215611dc3579160200282015b82811115611dc2578251825591602001919060010190611da7565b5b509050611dd09190611fcb565b5090565b602060405190810160405280600081525090565b815481835581811511611e0f57818360005260206000209182019101611e0e9190611fcb565b5b505050565b828054828255906000526020600020908101928215611e8d579160200282015b82811115611e8c5782518260006101000a81548173ffffffffffffffffffffffffffffffffffffffff021916908373ffffffffffffffffffffffffffffffffffffffff16021790555091602001919060010190611e34565b5b509050611e9a9190611ff0565b5090565b828054828255906000526020600020908101928215611eda579160200282015b82811115611ed9578251825591602001919060010190611ebe565b5b509050611ee79190611fcb565b5090565b602060405190810160405280600081525090565b828054828255906000526020600020908101928215611f78579160200282015b82811115611f775782518260006101000a81548173ffffffffffffffffffffffffffffffffffffffff021916908373ffffffffffffffffffffffffffffffffffffffff16021790555091602001919060010190611f1f565b5b509050611f859190611ff0565b5090565b5080546000825590600052602060002090810190611fa79190611fcb565b50565b5080546000825590600052602060002090810190611fc89190611fcb565b50565b611fed91905b80821115611fe9576000816000905550600101611fd1565b5090565b90565b61203091905b8082111561202c57600081816101000a81549073ffffffffffffffffffffffffffffffffffffffff021916905550600101611ff6565b5090565b905600a165627a7a723058204f8bfce28cc877324868ef831769f761cabe2a23721a730cce76ae99d610e9600029",
  "source": "pragma solidity ^0.4.18;\n\nimport 'zeppelin-solidity/contracts/ownership/Ownable.sol';\n\n/**\n* @title MasterContract\n*\n* MasterContract MVF for PatientDirected.io\n*\n* Contract handles approval and cost-listing for \n* patient data requests by authorized requestors\n*\n*/\ncontract MasterContract is Ownable {\n\t\n\t/**\n\t* Requestor Whitelist struct\n\t*/\n\tstruct Whitelist {\n\t\taddress patient;\n\t\taddress[] requestors;\n\t\tuint[] costIdArray;\n\t\tuint[] costListArray;\n\t\tmapping (uint => uint) costlist;\n\t}\n\n\t/**\n\t* @dev Map patient address(ID) to whitelist struct\n\t*/\n\tmapping (address => Whitelist) public whitelists;\n\n\t/**\n\t* @dev Array of patient addresses\n\t*/\n\taddress[] public patients;\n\n\t/**\n\t* @dev Event to notify results of transaction\n\t*/\n\tevent Result(address patientAddress, address requestor, bool result, uint[] costIds, uint[] costs);\n\n\t/**\n\t* Contract Constructor\n\t*/\n\tfunction MasterContract() public {}\n\n\t/**\n\t* @dev Function to add patient addresses to patients array\n\t*\n\t* @dev Restricted to Owner within MVF scope\n\t*/\n\tfunction addPatient(address patientAddress, address[] requestors, uint[] costIdArray, uint[] costListArray) public onlyOwner {\n\t\trequire(whitelists[patientAddress].patient == address(0x0));\n\t\tpatients.push(patientAddress);\n\t\twhitelists[patientAddress] = Whitelist(patientAddress, requestors, costIdArray, costListArray);\n\t\tbuildCostListMapping(patientAddress, costIdArray, costListArray);\n\t}\n\n\t/**\n\t* @dev Function to remove patient addresses from patients array and whitelist\n\t*\n\t* @dev Restricted to Owner within MVF scope\n\t*/\n\tfunction removePatient(address patientAddress) public onlyOwner {\n\t\trequire(whitelists[patientAddress].patient != address(0x0));\n\t\tuint patientIndex;\n\t\tfor (uint i = 0; i < patients.length; i++) {\n\t\t\tif (patients[i] == patientAddress) {\n\t\t\t\tpatientIndex == i;\n\t\t\t\tbreak;\n\t\t\t}\n\t\t}\n\n\t\tpatients[patientIndex] = patients[patients.length - 1];\n\t\tdelete patients[patients.length - 1];\n\t\tremovePatientWhitelist(patientAddress);\n\n\t}\n\n\t/**\n\t* @dev Function to remove patient's whitelist struct\n\t*/\n\tfunction removePatientWhitelist(address patientAddress) internal {\n\t\trequire(whitelists[patientAddress].patient != address(0x0));\n\t\tdelete whitelists[patientAddress];\n\t}\n\n\t/**\n\t* @dev Function to update a patient's requestor whitelist (must provide full array of requestors)\n\t*/\n\tfunction updateWhitelistRequestors(address patientAddress, address[] requestorsArray) public onlyOwner {\n\t\trequire(whitelists[patientAddress].patient != address(0x0));\n\t\twhitelists[patientAddress].requestors = requestorsArray;\n\t}\n\n\t/**\n\t* @dev Function to update a patient's cost list\n\t*/\n\tfunction updateWhitelistCosts(address patientAddress, uint[] costIdsArray, uint[] costsArray) public onlyOwner {\n\t\trequire(whitelists[patientAddress].patient != address(0x0));\n\n\t\tbuildCostListMapping(patientAddress, costIdsArray, costsArray);\n\t\twhitelists[patientAddress].costIdArray = costIdsArray;\n\t\twhitelists[patientAddress].costListArray = costsArray;\n\t}\n\n\t/**\n\t* @dev Function to create the patient's cost map\n\t*/\n\tfunction buildCostListMapping(address patientAddress, uint[] costIdArray, uint[] costListArray) internal {\n\t\tfor (uint i = 0; i < costIdArray.length; i++) {\n\t\t\twhitelists[patientAddress].costlist[costIdArray[i]] = costListArray[i];\n\t\t}\n\t}\n\t\n\t/**\n\t* @dev Function to check a Requestor's authorization for a patient\n\t* @dev Returns result and, if authorized, patient's pricelist\n\t*/\n\tfunction authorizeRequestor(address patientAddress, address requestor) public returns \n\t(address patientAddressReturn, address requestorReturn, bool resultReturn, uint[] costIdReturn, uint[] costListReturn) {\n\t\trequire(whitelists[patientAddress].patient == patientAddress);\n\n\t\taddress[] memory requestors = whitelists[patientAddress].requestors;\n\t\tbool approved = false;\n\t\tuint[] memory costIDs;\n\t\tuint[] memory costs;\n\n\t\tfor (uint i = 0; i < requestors.length; i++) {\n\t\t\tif (requestors[i] == requestor) {\n\t\t\t\tapproved = true;\n\t\t\t\tbreak;\n\t\t\t}\n\t\t}\n\n\t\tif (approved == true) {\n\t\t\tcostIDs = whitelists[patientAddress].costIdArray;\n\t\t\tcosts = whitelists[patientAddress].costListArray;\n\t\t}\n\n\t\tResult(patientAddress, requestor, approved, costIDs, costs);\n\t\treturn (patientAddress, requestor, approved, costIDs, costs);\n\n\t}\n\n\t/**\n\t* \n\t* Getter Functions for working with mapped struct\n\t*\n\t*/\n\n\t/**\n\t* Function to get Patient ID from struct\n\t*/\n\tfunction getPatientId(address patientAddress) public view returns (address patientAddy) {\n\t\trequire(whitelists[patientAddress].patient == patientAddress);\n\t\treturn whitelists[patientAddress].patient;\n\t}\n\t\n\t/**\n\t* Function to get Requestor Array from struct\n\t*/\n\tfunction getPatientRequestorArray(address patientAddress) public view returns (address[] requestorArray) {\n\t\trequire(whitelists[patientAddress].patient == patientAddress);\n\t\treturn whitelists[patientAddress].requestors;\n\t}\n\n\t/**\n\t* Function to get Cost ID Array from struct\n\t*/\n\tfunction getPatientCostIdArray(address patientAddress) public view returns (uint[] costIDArray) {\n\t\trequire(whitelists[patientAddress].patient == patientAddress);\n\t\treturn whitelists[patientAddress].costIdArray;\n\t}\n\n\t/**\n\t* Function to get Cost List Array from struct\n\t*/\n\tfunction getPatientCostListArray(address patientAddress) public view returns (uint[] costlistArray) {\n\t\trequire(whitelists[patientAddress].patient == patientAddress);\n\t\treturn whitelists[patientAddress].costListArray;\n\t}\n\n\n}",
  "sourcePath": "/Users/chrisbrown/Code/Clients/PatientDirected/MasterContract/contracts/MasterContract.sol",
  "compiler": {
    "name": "solc",
    "version": "0.4.19+commit.c4cbbb05.Emscripten.clang"
  },
  "schemaVersion": "2.0.0",
  "updatedAt": "2018-03-13T22:19:24.631Z"
}