{
  "contractName": "MasterContract",
  "abi": [
    {
      "constant": true,
      "inputs": [
        {
          "name": "",
          "type": "address"
        }
      ],
      "name": "whitelists",
      "outputs": [
        {
          "name": "patient",
          "type": "address"
        }
      ],
      "payable": false,
      "stateMutability": "view",
      "type": "function"
    },
    {
      "constant": true,
      "inputs": [],
      "name": "owner",
      "outputs": [
        {
          "name": "",
          "type": "address"
        }
      ],
      "payable": false,
      "stateMutability": "view",
      "type": "function"
    },
    {
      "constant": true,
      "inputs": [
        {
          "name": "",
          "type": "uint256"
        }
      ],
      "name": "patients",
      "outputs": [
        {
          "name": "",
          "type": "address"
        }
      ],
      "payable": false,
      "stateMutability": "view",
      "type": "function"
    },
    {
      "constant": false,
      "inputs": [
        {
          "name": "newOwner",
          "type": "address"
        }
      ],
      "name": "transferOwnership",
      "outputs": [],
      "payable": false,
      "stateMutability": "nonpayable",
      "type": "function"
    },
    {
      "inputs": [],
      "payable": false,
      "stateMutability": "nonpayable",
      "type": "constructor"
    },
    {
      "anonymous": false,
      "inputs": [
        {
          "indexed": false,
          "name": "patientAddress",
          "type": "address"
        },
        {
          "indexed": false,
          "name": "requestor",
          "type": "address"
        },
        {
          "indexed": false,
          "name": "result",
          "type": "bool"
        },
        {
          "indexed": false,
          "name": "costpairs",
          "type": "uint256[2][]"
        }
      ],
      "name": "Result",
      "type": "event"
    },
    {
      "anonymous": false,
      "inputs": [
        {
          "indexed": true,
          "name": "previousOwner",
          "type": "address"
        },
        {
          "indexed": true,
          "name": "newOwner",
          "type": "address"
        }
      ],
      "name": "OwnershipTransferred",
      "type": "event"
    },
    {
      "constant": false,
      "inputs": [
        {
          "name": "patientAddress",
          "type": "address"
        },
        {
          "name": "requestors",
          "type": "address[]"
        },
        {
          "name": "costpairs",
          "type": "uint256[2][]"
        }
      ],
      "name": "addPatient",
      "outputs": [],
      "payable": false,
      "stateMutability": "nonpayable",
      "type": "function"
    },
    {
      "constant": false,
      "inputs": [
        {
          "name": "patientAddress",
          "type": "address"
        }
      ],
      "name": "removePatient",
      "outputs": [],
      "payable": false,
      "stateMutability": "nonpayable",
      "type": "function"
    },
    {
      "constant": false,
      "inputs": [
        {
          "name": "patientAddress",
          "type": "address"
        },
        {
          "name": "requestorsArray",
          "type": "address[]"
        }
      ],
      "name": "updateWhitelistRequestors",
      "outputs": [],
      "payable": false,
      "stateMutability": "nonpayable",
      "type": "function"
    },
    {
      "constant": false,
      "inputs": [
        {
          "name": "patientAddress",
          "type": "address"
        },
        {
          "name": "costpairs",
          "type": "uint256[2][]"
        }
      ],
      "name": "updateWhitelistCosts",
      "outputs": [],
      "payable": false,
      "stateMutability": "nonpayable",
      "type": "function"
    },
    {
      "constant": false,
      "inputs": [
        {
          "name": "patientAddress",
          "type": "address"
        },
        {
          "name": "requestor",
          "type": "address"
        }
      ],
      "name": "authorizeRequestor",
      "outputs": [
        {
          "name": "patientAddressReturn",
          "type": "address"
        },
        {
          "name": "requestorReturn",
          "type": "address"
        },
        {
          "name": "resultReturn",
          "type": "bool"
        },
        {
          "name": "costpairs",
          "type": "uint256[2][]"
        }
      ],
      "payable": false,
      "stateMutability": "nonpayable",
      "type": "function"
    },
    {
      "constant": true,
      "inputs": [
        {
          "name": "patientAddress",
          "type": "address"
        }
      ],
      "name": "getPatientId",
      "outputs": [
        {
          "name": "patientAddy",
          "type": "address"
        }
      ],
      "payable": false,
      "stateMutability": "view",
      "type": "function"
    },
    {
      "constant": true,
      "inputs": [
        {
          "name": "patientAddress",
          "type": "address"
        }
      ],
      "name": "getPatientRequestorArray",
      "outputs": [
        {
          "name": "requestorArray",
          "type": "address[]"
        }
      ],
      "payable": false,
      "stateMutability": "view",
      "type": "function"
    },
    {
      "constant": true,
      "inputs": [
        {
          "name": "patientAddress",
          "type": "address"
        }
      ],
      "name": "getPatientCostListArray",
      "outputs": [
        {
          "name": "costlistArray",
          "type": "uint256[2][]"
        }
      ],
      "payable": false,
      "stateMutability": "view",
      "type": "function"
    }
  ],
  "bytecode": "0x6060604052341561000f57600080fd5b336000806101000a81548173ffffffffffffffffffffffffffffffffffffffff021916908373ffffffffffffffffffffffffffffffffffffffff160217905550611e588061005e6000396000f3006060604052600436106100ba576000357c0100000000000000000000000000000000000000000000000000000000900463ffffffff168063156fbdba146100bf5780631e7be210146101b45780632604fa7b1461022d5780632b47427f146102a65780637d0d62571461035b5780638da5cb5b1461039457806393119a83146103e9578063931c006a1461044c578063c90bd2f51461058d578063e7e7bcae1461063e578063ed94a3a1146106b7578063f2fde38b14610745575b600080fd5b34156100ca57600080fd5b6101b2600480803573ffffffffffffffffffffffffffffffffffffffff16906020019091908035906020019082018035906020019080806020026020016040519081016040528093929190818152602001838360200280828437820191505050505050919080359060200190820180359060200190808060200260200160405190810160405280939291908181526020016000905b828210156101a457848483905060400201600280602002604051908101604052809291908260026020028082843782019150505050508152602001906001019061015f565b50505050509190505061077e565b005b34156101bf57600080fd5b6101eb600480803573ffffffffffffffffffffffffffffffffffffffff169060200190919050506109dd565b604051808273ffffffffffffffffffffffffffffffffffffffff1673ffffffffffffffffffffffffffffffffffffffff16815260200191505060405180910390f35b341561023857600080fd5b610264600480803573ffffffffffffffffffffffffffffffffffffffff16906020019091905050610a1b565b604051808273ffffffffffffffffffffffffffffffffffffffff1673ffffffffffffffffffffffffffffffffffffffff16815260200191505060405180910390f35b34156102b157600080fd5b610359600480803573ffffffffffffffffffffffffffffffffffffffff169060200190919080359060200190820180359060200190808060200260200160405190810160405280939291908181526020016000905b8282101561034b578484839050604002016002806020026040519081016040528092919082600260200280828437820191505050505081526020019060010190610306565b505050505091905050610b23565b005b341561036657600080fd5b610392600480803573ffffffffffffffffffffffffffffffffffffffff16906020019091905050610c81565b005b341561039f57600080fd5b6103a7610efd565b604051808273ffffffffffffffffffffffffffffffffffffffff1673ffffffffffffffffffffffffffffffffffffffff16815260200191505060405180910390f35b34156103f457600080fd5b61040a6004808035906020019091905050610f22565b604051808273ffffffffffffffffffffffffffffffffffffffff1673ffffffffffffffffffffffffffffffffffffffff16815260200191505060405180910390f35b341561045757600080fd5b6104a2600480803573ffffffffffffffffffffffffffffffffffffffff1690602001909190803573ffffffffffffffffffffffffffffffffffffffff16906020019091905050610f61565b604051808573ffffffffffffffffffffffffffffffffffffffff1673ffffffffffffffffffffffffffffffffffffffff1681526020018473ffffffffffffffffffffffffffffffffffffffff1673ffffffffffffffffffffffffffffffffffffffff16815260200183151515158152602001806020018281038252838181518152602001915080516000925b8184101561057957828490602001906020020151600260200280838360005b8381101561056857808201518184015260208101905061054d565b50505050905001926001019261052e565b925050509550505050505060405180910390f35b341561059857600080fd5b6105c4600480803573ffffffffffffffffffffffffffffffffffffffff1690602001909190505061135b565b60405180806020018281038252838181518152602001915080516000925b8184101561062d57828490602001906020020151600260200280838360005b8381101561061c578082015181840152602081019050610601565b5050505090500192600101926105e2565b925050509250505060405180910390f35b341561064957600080fd5b6106b5600480803573ffffffffffffffffffffffffffffffffffffffff16906020019091908035906020019082018035906020019080806020026020016040519081016040528093929190818152602001838360200280828437820191505050505050919050506114cf565b005b34156106c257600080fd5b6106ee600480803573ffffffffffffffffffffffffffffffffffffffff16906020019091905050611623565b6040518080602001828103825283818151815260200191508051906020019060200280838360005b83811015610731578082015181840152602081019050610716565b505050509050019250505060405180910390f35b341561075057600080fd5b61077c600480803573ffffffffffffffffffffffffffffffffffffffff16906020019091905050611795565b005b6000809054906101000a900473ffffffffffffffffffffffffffffffffffffffff1673ffffffffffffffffffffffffffffffffffffffff163373ffffffffffffffffffffffffffffffffffffffff161415156107d957600080fd5b600073ffffffffffffffffffffffffffffffffffffffff16600160008573ffffffffffffffffffffffffffffffffffffffff1673ffffffffffffffffffffffffffffffffffffffff16815260200190815260200160002060000160009054906101000a900473ffffffffffffffffffffffffffffffffffffffff1673ffffffffffffffffffffffffffffffffffffffff1614151561087657600080fd5b6002805480600101828161088a9190611ae1565b9160005260206000209001600085909190916101000a81548173ffffffffffffffffffffffffffffffffffffffff021916908373ffffffffffffffffffffffffffffffffffffffff160217905550506060604051908101604052808473ffffffffffffffffffffffffffffffffffffffff16815260200183815260200182815250600160008573ffffffffffffffffffffffffffffffffffffffff1673ffffffffffffffffffffffffffffffffffffffff16815260200190815260200160002060008201518160000160006101000a81548173ffffffffffffffffffffffffffffffffffffffff021916908373ffffffffffffffffffffffffffffffffffffffff16021790555060208201518160010190805190602001906109ad929190611b0d565b5060408201518160020190805190602001906109ca929190611b97565b509050506109d883826118ea565b505050565b60016020528060005260406000206000915090508060000160009054906101000a900473ffffffffffffffffffffffffffffffffffffffff16905081565b60008173ffffffffffffffffffffffffffffffffffffffff16600160008473ffffffffffffffffffffffffffffffffffffffff1673ffffffffffffffffffffffffffffffffffffffff16815260200190815260200160002060000160009054906101000a900473ffffffffffffffffffffffffffffffffffffffff1673ffffffffffffffffffffffffffffffffffffffff16141515610ab957600080fd5b600160008373ffffffffffffffffffffffffffffffffffffffff1673ffffffffffffffffffffffffffffffffffffffff16815260200190815260200160002060000160009054906101000a900473ffffffffffffffffffffffffffffffffffffffff169050919050565b6000809054906101000a900473ffffffffffffffffffffffffffffffffffffffff1673ffffffffffffffffffffffffffffffffffffffff163373ffffffffffffffffffffffffffffffffffffffff16141515610b7e57600080fd5b600073ffffffffffffffffffffffffffffffffffffffff16600160008473ffffffffffffffffffffffffffffffffffffffff1673ffffffffffffffffffffffffffffffffffffffff16815260200190815260200160002060000160009054906101000a900473ffffffffffffffffffffffffffffffffffffffff1673ffffffffffffffffffffffffffffffffffffffff1614151515610c1c57600080fd5b610c2682826118ea565b80600160008473ffffffffffffffffffffffffffffffffffffffff1673ffffffffffffffffffffffffffffffffffffffff1681526020019081526020016000206002019080519060200190610c7c929190611bf5565b505050565b6000806000809054906101000a900473ffffffffffffffffffffffffffffffffffffffff1673ffffffffffffffffffffffffffffffffffffffff163373ffffffffffffffffffffffffffffffffffffffff16141515610cdf57600080fd5b600073ffffffffffffffffffffffffffffffffffffffff16600160008573ffffffffffffffffffffffffffffffffffffffff1673ffffffffffffffffffffffffffffffffffffffff16815260200190815260200160002060000160009054906101000a900473ffffffffffffffffffffffffffffffffffffffff1673ffffffffffffffffffffffffffffffffffffffff1614151515610d7d57600080fd5b600090505b600280549050811015610e0f578273ffffffffffffffffffffffffffffffffffffffff16600282815481101515610db557fe5b906000526020600020900160009054906101000a900473ffffffffffffffffffffffffffffffffffffffff1673ffffffffffffffffffffffffffffffffffffffff161415610e0257610e0f565b8080600101915050610d82565b6002600160028054905003815481101515610e2657fe5b906000526020600020900160009054906101000a900473ffffffffffffffffffffffffffffffffffffffff16600283815481101515610e6157fe5b906000526020600020900160006101000a81548173ffffffffffffffffffffffffffffffffffffffff021916908373ffffffffffffffffffffffffffffffffffffffff1602179055506002600160028054905003815481101515610ec157fe5b906000526020600020900160006101000a81549073ffffffffffffffffffffffffffffffffffffffff0219169055610ef8836119b7565b505050565b6000809054906101000a900473ffffffffffffffffffffffffffffffffffffffff1681565b600281815481101515610f3157fe5b90600052602060002090016000915054906101000a900473ffffffffffffffffffffffffffffffffffffffff1681565b6000806000610f6e611c53565b610f76611c67565b6000610f80611c53565b60008973ffffffffffffffffffffffffffffffffffffffff16600160008c73ffffffffffffffffffffffffffffffffffffffff1673ffffffffffffffffffffffffffffffffffffffff16815260200190815260200160002060000160009054906101000a900473ffffffffffffffffffffffffffffffffffffffff1673ffffffffffffffffffffffffffffffffffffffff1614151561101e57600080fd5b600160008b73ffffffffffffffffffffffffffffffffffffffff1673ffffffffffffffffffffffffffffffffffffffff1681526020019081526020016000206001018054806020026020016040519081016040528092919081815260200182805480156110e057602002820191906000526020600020905b8160009054906101000a900473ffffffffffffffffffffffffffffffffffffffff1673ffffffffffffffffffffffffffffffffffffffff1681526020019060010190808311611096575b5050505050935060009250600090505b835181101561115a578873ffffffffffffffffffffffffffffffffffffffff16848281518110151561111e57fe5b9060200190602002015173ffffffffffffffffffffffffffffffffffffffff16141561114d576001925061115a565b80806001019150506110f0565b60011515831515141561123357600160008b73ffffffffffffffffffffffffffffffffffffffff1673ffffffffffffffffffffffffffffffffffffffff168152602001908152602001600020600201805480602002602001604051908101604052809291908181526020016000905b8282101561122c5783829060005260206000209060020201600280602002604051908101604052809291908260028015611218576020028201915b815481526020019060010190808311611204575b5050505050815260200190600101906111c9565b5050505091505b7f28d8b1b29713960da8701961b16c91fdba9c46e28db14f211eee3ba31895a2a78a8a8585604051808573ffffffffffffffffffffffffffffffffffffffff1673ffffffffffffffffffffffffffffffffffffffff1681526020018473ffffffffffffffffffffffffffffffffffffffff1673ffffffffffffffffffffffffffffffffffffffff16815260200183151515158152602001806020018281038252838181518152602001915080516000925b8184101561132f57828490602001906020020151600260200280838360005b8381101561131e578082015181840152602081019050611303565b5050505090500192600101926112e4565b925050509550505050505060405180910390a18989848497509750975097505050505092959194509250565b611363611c53565b8173ffffffffffffffffffffffffffffffffffffffff16600160008473ffffffffffffffffffffffffffffffffffffffff1673ffffffffffffffffffffffffffffffffffffffff16815260200190815260200160002060000160009054906101000a900473ffffffffffffffffffffffffffffffffffffffff1673ffffffffffffffffffffffffffffffffffffffff161415156113ff57600080fd5b600160008373ffffffffffffffffffffffffffffffffffffffff1673ffffffffffffffffffffffffffffffffffffffff168152602001908152602001600020600201805480602002602001604051908101604052809291908181526020016000905b828210156114c457838290600052602060002090600202016002806020026040519081016040528092919082600280156114b0576020028201915b81548152602001906001019080831161149c575b505050505081526020019060010190611461565b505050509050919050565b6000809054906101000a900473ffffffffffffffffffffffffffffffffffffffff1673ffffffffffffffffffffffffffffffffffffffff163373ffffffffffffffffffffffffffffffffffffffff1614151561152a57600080fd5b600073ffffffffffffffffffffffffffffffffffffffff16600160008473ffffffffffffffffffffffffffffffffffffffff1673ffffffffffffffffffffffffffffffffffffffff16815260200190815260200160002060000160009054906101000a900473ffffffffffffffffffffffffffffffffffffffff1673ffffffffffffffffffffffffffffffffffffffff16141515156115c857600080fd5b80600160008473ffffffffffffffffffffffffffffffffffffffff1673ffffffffffffffffffffffffffffffffffffffff168152602001908152602001600020600101908051906020019061161e929190611c7b565b505050565b61162b611c67565b8173ffffffffffffffffffffffffffffffffffffffff16600160008473ffffffffffffffffffffffffffffffffffffffff1673ffffffffffffffffffffffffffffffffffffffff16815260200190815260200160002060000160009054906101000a900473ffffffffffffffffffffffffffffffffffffffff1673ffffffffffffffffffffffffffffffffffffffff161415156116c757600080fd5b600160008373ffffffffffffffffffffffffffffffffffffffff1673ffffffffffffffffffffffffffffffffffffffff16815260200190815260200160002060010180548060200260200160405190810160405280929190818152602001828054801561178957602002820191906000526020600020905b8160009054906101000a900473ffffffffffffffffffffffffffffffffffffffff1673ffffffffffffffffffffffffffffffffffffffff168152602001906001019080831161173f575b50505050509050919050565b6000809054906101000a900473ffffffffffffffffffffffffffffffffffffffff1673ffffffffffffffffffffffffffffffffffffffff163373ffffffffffffffffffffffffffffffffffffffff161415156117f057600080fd5b600073ffffffffffffffffffffffffffffffffffffffff168173ffffffffffffffffffffffffffffffffffffffff161415151561182c57600080fd5b8073ffffffffffffffffffffffffffffffffffffffff166000809054906101000a900473ffffffffffffffffffffffffffffffffffffffff1673ffffffffffffffffffffffffffffffffffffffff167f8be0079c531659141344cd1fd0a4f28419497f9722a3daafe3b4186f6b6457e060405160405180910390a3806000806101000a81548173ffffffffffffffffffffffffffffffffffffffff021916908373ffffffffffffffffffffffffffffffffffffffff16021790555050565b60008090505b81518110156119b257818181518110151561190757fe5b90602001906020020151600160028110151561191f57fe5b6020020151600160008573ffffffffffffffffffffffffffffffffffffffff1673ffffffffffffffffffffffffffffffffffffffff1681526020019081526020016000206003016000848481518110151561197657fe5b90602001906020020151600060028110151561198e57fe5b602002015181526020019081526020016000208190555080806001019150506118f0565b505050565b600073ffffffffffffffffffffffffffffffffffffffff16600160008373ffffffffffffffffffffffffffffffffffffffff1673ffffffffffffffffffffffffffffffffffffffff16815260200190815260200160002060000160009054906101000a900473ffffffffffffffffffffffffffffffffffffffff1673ffffffffffffffffffffffffffffffffffffffff1614151515611a5557600080fd5b600160008273ffffffffffffffffffffffffffffffffffffffff1673ffffffffffffffffffffffffffffffffffffffff168152602001908152602001600020600080820160006101000a81549073ffffffffffffffffffffffffffffffffffffffff0219169055600182016000611acc9190611d05565b600282016000611adc9190611d26565b505050565b815481835581811511611b0857818360005260206000209182019101611b079190611d4a565b5b505050565b828054828255906000526020600020908101928215611b86579160200282015b82811115611b855782518260006101000a81548173ffffffffffffffffffffffffffffffffffffffff021916908373ffffffffffffffffffffffffffffffffffffffff16021790555091602001919060010190611b2d565b5b509050611b939190611d6f565b5090565b828054828255906000526020600020906002028101928215611be4579160200282015b82811115611be357825182906002611bd3929190611db2565b5091602001919060020190611bba565b5b509050611bf19190611df2565b5090565b828054828255906000526020600020906002028101928215611c42579160200282015b82811115611c4157825182906002611c31929190611db2565b5091602001919060020190611c18565b5b509050611c4f9190611df2565b5090565b602060405190810160405280600081525090565b602060405190810160405280600081525090565b828054828255906000526020600020908101928215611cf4579160200282015b82811115611cf35782518260006101000a81548173ffffffffffffffffffffffffffffffffffffffff021916908373ffffffffffffffffffffffffffffffffffffffff16021790555091602001919060010190611c9b565b5b509050611d019190611d6f565b5090565b5080546000825590600052602060002090810190611d239190611d4a565b50565b5080546000825560020290600052602060002090810190611d479190611df2565b50565b611d6c91905b80821115611d68576000816000905550600101611d50565b5090565b90565b611daf91905b80821115611dab57600081816101000a81549073ffffffffffffffffffffffffffffffffffffffff021916905550600101611d75565b5090565b90565b8260028101928215611de1579160200282015b82811115611de0578251825591602001919060010190611dc5565b5b509050611dee9190611d4a565b5090565b611e1b91905b80821115611e175760008181611e0e9190611e1e565b50600201611df8565b5090565b90565b5060008155600101600090555600a165627a7a7230582085ce674dcffd1e8646aea02f9629ad53faeaec2bdd21b03c498ed60ef4d058f80029",
  "source": "pragma solidity ^0.4.18;\n\nimport 'zeppelin-solidity/contracts/ownership/Ownable.sol';\n\n/**\n* @title MasterContract\n*\n* MasterContract MVF for PatientDirected.io\n*\n* Contract handles approval and cost-listing for \n* patient data requests by authorized requestors\n*\n*/\ncontract MasterContract is Ownable {\n\t\n\t/**\n\t* Requestor Whitelist struct\n\t*/\n\tstruct Whitelist {\n\t\taddress patient;\n\t\taddress[] requestors;\n\t\tuint[2][] costPairs;\n\t\tmapping (uint => uint) costlist;\n\t}\n\n\t/**\n\t* @dev Map patient address(ID) to whitelist struct\n\t*/\n\tmapping (address => Whitelist) public whitelists;\n\n\t/**\n\t* @dev Array of patient addresses\n\t*/\n\taddress[] public patients;\n\n\t/**\n\t* @dev Event to notify results of transaction\n\t*/\n\tevent Result(address patientAddress, address requestor, bool result, uint[2][] costpairs);\n\n\t/**\n\t* Contract Constructor\n\t*/\n\tfunction MasterContract() public {}\n\n\t/**\n\t* @dev Function to add patient addresses to patients array\n\t*\n\t* @dev Restricted to Owner within MVF scope\n\t*/\n\tfunction addPatient(address patientAddress, address[] requestors, uint[2][] costpairs) public onlyOwner {\n\t\trequire(whitelists[patientAddress].patient == address(0x0));\n\t\tpatients.push(patientAddress);\n\t\twhitelists[patientAddress] = Whitelist(patientAddress, requestors, costpairs);\n\t\tbuildCostListMapping(patientAddress, costpairs);\n\t}\n\n\t/**\n\t* @dev Function to remove patient addresses from patients array and whitelist\n\t*\n\t* @dev Restricted to Owner within MVF scope\n\t*/\n\tfunction removePatient(address patientAddress) public onlyOwner {\n\t\trequire(whitelists[patientAddress].patient != address(0x0));\n\t\tuint patientIndex;\n\t\tfor (uint i = 0; i < patients.length; i++) {\n\t\t\tif (patients[i] == patientAddress) {\n\t\t\t\tpatientIndex == i;\n\t\t\t\tbreak;\n\t\t\t}\n\t\t}\n\n\t\tpatients[patientIndex] = patients[patients.length - 1];\n\t\tdelete patients[patients.length - 1];\n\t\tremovePatientWhitelist(patientAddress);\n\n\t}\n\n\t/**\n\t* @dev Function to remove patient's whitelist struct\n\t*/\n\tfunction removePatientWhitelist(address patientAddress) internal {\n\t\trequire(whitelists[patientAddress].patient != address(0x0));\n\t\tdelete whitelists[patientAddress];\n\t}\n\n\t/**\n\t* @dev Function to update a patient's requestor whitelist (must provide full array of requestors)\n\t*/\n\tfunction updateWhitelistRequestors(address patientAddress, address[] requestorsArray) public onlyOwner {\n\t\trequire(whitelists[patientAddress].patient != address(0x0));\n\t\twhitelists[patientAddress].requestors = requestorsArray;\n\t}\n\n\t/**\n\t* @dev Function to update a patient's cost list\n\t*/\n\tfunction updateWhitelistCosts(address patientAddress, uint[2][] costpairs) public onlyOwner {\n\t\trequire(whitelists[patientAddress].patient != address(0x0));\n\t\tbuildCostListMapping(patientAddress, costpairs);\n\t\twhitelists[patientAddress].costPairs = costpairs;\n\t}\n\n\t/**\n\t* @dev Function to create the patient's cost map\n\t*/\n\tfunction buildCostListMapping(address patientAddress, uint[2][] costpairs) internal {\n\t\tfor (uint j = 0; j < costpairs.length; j++) {\n\t\t\twhitelists[patientAddress].costlist[costpairs[j][0]] = costpairs[j][1];\n\t\t}\n\t}\n\t\n\t/**\n\t* @dev Function to check a Requestor's authorization for a patient\n\t* @dev Returns result and, if authorized, patient's pricelist\n\t*/\n\tfunction authorizeRequestor(address patientAddress, address requestor) public returns \n\t(address patientAddressReturn, address requestorReturn, bool resultReturn, uint[2][] costpairs) {\n\t\trequire(whitelists[patientAddress].patient == patientAddress);\n\n\t\taddress[] memory requestors = whitelists[patientAddress].requestors;\n\t\tbool approved = false;\n\t\tuint[2][] memory costpairArr;\n\n\t\tfor (uint i = 0; i < requestors.length; i++) {\n\t\t\tif (requestors[i] == requestor) {\n\t\t\t\tapproved = true;\n\t\t\t\tbreak;\n\t\t\t}\n\t\t}\n\n\t\tif (approved == true) {\n\t\t\tcostpairArr = whitelists[patientAddress].costPairs;\n\t\t}\n\n\t\tResult(patientAddress, requestor, approved, costpairArr);\n\t\treturn (patientAddress, requestor, approved, costpairArr);\n\n\t}\n\n\t/**\n\t* \n\t* Getter Functions for working with mapped struct\n\t*\n\t*/\n\n\t/**\n\t* Function to get Patient ID from struct\n\t*/\n\tfunction getPatientId(address patientAddress) public view returns (address patientAddy) {\n\t\trequire(whitelists[patientAddress].patient == patientAddress);\n\t\treturn whitelists[patientAddress].patient;\n\t}\n\t\n\t/**\n\t* Function to get Requestor Array from struct\n\t*/\n\tfunction getPatientRequestorArray(address patientAddress) public view returns (address[] requestorArray) {\n\t\trequire(whitelists[patientAddress].patient == patientAddress);\n\t\treturn whitelists[patientAddress].requestors;\n\t}\n\n\t/**\n\t* Function to get Cost ID Array from struct\n\t*/\n\t// function getPatientCostIdArray(address patientAddress) public view returns (uint[] costIDArray) {\n\t// \trequire(whitelists[patientAddress].patient == patientAddress);\n\t// \treturn whitelists[patientAddress].costIdArray;\n\t// }\n\n\t/**\n\t* Function to get Cost List Array from struct\n\t*/\n\tfunction getPatientCostListArray(address patientAddress) public view returns (uint[2][] costlistArray) {\n\t\trequire(whitelists[patientAddress].patient == patientAddress);\n\t\treturn whitelists[patientAddress].costPairs;\n\t}\n\n\n}",
  "sourcePath": "/Users/chrisbrown/Code/Clients/PatientDirected/MasterContract/contracts/MasterContract.sol",
  "compiler": {
    "name": "solc",
    "version": "0.4.19+commit.c4cbbb05.Emscripten.clang"
  },
  "schemaVersion": "2.0.0",
  "updatedAt": "2018-03-16T16:58:00.674Z"
}